{
  "contractName": "DEats",
  "abi": [
    {
      "inputs": [],
      "stateMutability": "nonpayable",
      "type": "constructor"
    },
    {
      "anonymous": false,
      "inputs": [
        {
          "indexed": false,
          "internalType": "uint256",
          "name": "orderId",
          "type": "uint256"
        },
        {
          "indexed": false,
          "internalType": "address",
          "name": "deliverer",
          "type": "address"
        }
      ],
      "name": "deliveryAccepted",
      "type": "event"
    },
    {
      "anonymous": false,
      "inputs": [
        {
          "indexed": false,
          "internalType": "uint256",
          "name": "orderId",
          "type": "uint256"
        },
        {
          "indexed": false,
          "internalType": "address",
          "name": "customer",
          "type": "address"
        },
        {
          "indexed": false,
          "internalType": "address",
          "name": "restaurant",
          "type": "address"
        }
      ],
      "name": "orderAccepted",
      "type": "event"
    },
    {
      "anonymous": false,
      "inputs": [
        {
          "indexed": false,
          "internalType": "uint256",
          "name": "orderId",
          "type": "uint256"
        },
        {
          "indexed": false,
          "internalType": "address",
          "name": "customer",
          "type": "address"
        },
        {
          "indexed": false,
          "internalType": "address",
          "name": "restaurant",
          "type": "address"
        },
        {
          "indexed": false,
          "internalType": "address",
          "name": "deliverer",
          "type": "address"
        }
      ],
      "name": "orderOut",
      "type": "event"
    },
    {
      "anonymous": false,
      "inputs": [
        {
          "indexed": false,
          "internalType": "uint256",
          "name": "orderId",
          "type": "uint256"
        },
        {
          "indexed": false,
          "internalType": "address",
          "name": "customer",
          "type": "address"
        },
        {
          "indexed": false,
          "internalType": "address",
          "name": "restaurant",
          "type": "address"
        }
      ],
      "name": "orderPlaced",
      "type": "event"
    },
    {
      "anonymous": false,
      "inputs": [
        {
          "indexed": false,
          "internalType": "uint256",
          "name": "orderId",
          "type": "uint256"
        },
        {
          "indexed": false,
          "internalType": "address",
          "name": "customer",
          "type": "address"
        }
      ],
      "name": "orderReceived",
      "type": "event"
    },
    {
      "inputs": [
        {
          "internalType": "address",
          "name": "",
          "type": "address"
        }
      ],
      "name": "deliveryGuys",
      "outputs": [
        {
          "internalType": "string",
          "name": "name",
          "type": "string"
        },
        {
          "internalType": "uint256",
          "name": "fund",
          "type": "uint256"
        }
      ],
      "stateMutability": "view",
      "type": "function",
      "constant": true
    },
    {
      "inputs": [
        {
          "internalType": "uint256",
          "name": "",
          "type": "uint256"
        }
      ],
      "name": "orders",
      "outputs": [
        {
          "internalType": "address",
          "name": "Customer",
          "type": "address"
        },
        {
          "internalType": "address",
          "name": "Restaurant",
          "type": "address"
        },
        {
          "internalType": "address",
          "name": "DeliveryPerson",
          "type": "address"
        },
        {
          "internalType": "uint256",
          "name": "Price",
          "type": "uint256"
        }
      ],
      "stateMutability": "view",
      "type": "function",
      "constant": true
    },
    {
      "inputs": [
        {
          "internalType": "address",
          "name": "",
          "type": "address"
        }
      ],
      "name": "restaurants",
      "outputs": [
        {
          "internalType": "string",
          "name": "name",
          "type": "string"
        },
        {
          "internalType": "uint256",
          "name": "fund",
          "type": "uint256"
        }
      ],
      "stateMutability": "view",
      "type": "function",
      "constant": true
    },
    {
      "inputs": [
        {
          "internalType": "address",
          "name": "",
          "type": "address"
        }
      ],
      "name": "users",
      "outputs": [
        {
          "internalType": "string",
          "name": "name",
          "type": "string"
        }
      ],
      "stateMutability": "view",
      "type": "function",
      "constant": true
    },
    {
      "inputs": [
        {
          "internalType": "string",
          "name": "_name",
          "type": "string"
        },
        {
          "internalType": "uint256",
          "name": "_fund",
          "type": "uint256"
        }
      ],
      "name": "addRestaurant",
      "outputs": [],
      "stateMutability": "nonpayable",
      "type": "function"
    },
    {
      "inputs": [
        {
          "internalType": "string",
          "name": "_name",
          "type": "string"
        }
      ],
      "name": "addUser",
      "outputs": [],
      "stateMutability": "nonpayable",
      "type": "function"
    },
    {
      "inputs": [
        {
          "internalType": "string",
          "name": "_name",
          "type": "string"
        },
        {
          "internalType": "uint256",
          "name": "_fund",
          "type": "uint256"
        }
      ],
      "name": "addDeliveryGuy",
      "outputs": [],
      "stateMutability": "nonpayable",
      "type": "function"
    },
    {
      "inputs": [
        {
          "internalType": "address",
          "name": "_restaurantaddress",
          "type": "address"
        },
        {
          "internalType": "uint256",
          "name": "_amount",
          "type": "uint256"
        }
      ],
      "name": "PlaceOrder",
      "outputs": [],
      "stateMutability": "nonpayable",
      "type": "function"
    },
    {
      "inputs": [
        {
          "internalType": "uint256",
          "name": "_orderId",
          "type": "uint256"
        }
      ],
      "name": "AcceptOrder",
      "outputs": [],
      "stateMutability": "nonpayable",
      "type": "function"
    },
    {
      "inputs": [
        {
          "internalType": "uint256",
          "name": "_orderId",
          "type": "uint256"
        }
      ],
      "name": "AcceptDelivery",
      "outputs": [],
      "stateMutability": "nonpayable",
      "type": "function"
    },
    {
      "inputs": [
        {
          "internalType": "uint256",
          "name": "_orderId",
          "type": "uint256"
        }
      ],
      "name": "OutForDelivery",
      "outputs": [],
      "stateMutability": "view",
      "type": "function",
      "constant": true
    },
    {
      "inputs": [
        {
          "internalType": "uint256",
          "name": "_orderId",
          "type": "uint256"
        }
      ],
      "name": "PickedUp",
      "outputs": [],
      "stateMutability": "nonpayable",
      "type": "function"
    },
    {
      "inputs": [
        {
          "internalType": "uint256",
          "name": "_orderId",
          "type": "uint256"
        }
      ],
      "name": "received",
      "outputs": [],
      "stateMutability": "nonpayable",
      "type": "function"
    }
  ],
  "bytecode": "0x6080604052600a600555600560065534801561001a57600080fd5b50600780546001600160a01b03191673d9145cce52d386f254917e481eb44e9943f39138179055610b8b806100506000396000f3fe608060405234801561001057600080fd5b50600436106100cf5760003560e01c80632673eb911161008c578063915b59a311610066578063915b59a314610372578063a85c38ef1461038f578063a87430ba146103e1578063e66f0a771461047c576100cf565b80632673eb911461013c57806359c4db881461032f5780635efa7b381461034c576100cf565b806303606e86146100d457806305ca70c8146100f3578063083ec4061461011f57806309009cc41461013c57806318b8275a146101e4578063236cd7dc1461028a575b600080fd5b6100f1600480360360208110156100ea57600080fd5b5035610499565b005b6100f16004803603604081101561010957600080fd5b506001600160a01b0381351690602001356104c4565b6100f16004803603602081101561013557600080fd5b5035610522565b6100f16004803603604081101561015257600080fd5b81019060208101813564010000000081111561016d57600080fd5b82018360208201111561017f57600080fd5b803590602001918460018302840111640100000000831117156101a157600080fd5b91908080601f0160208091040260200160405190810160405280939291908181526020018383808284376000920191909152509295505091359250610621915050565b6100f1600480360360208110156101fa57600080fd5b81019060208101813564010000000081111561021557600080fd5b82018360208201111561022757600080fd5b8035906020019184600183028401116401000000008311171561024957600080fd5b91908080601f01602080910402602001604051908101604052809392919081815260200183838082843760009201919091525092955061068e945050505050565b6102b0600480360360208110156102a057600080fd5b50356001600160a01b03166106cf565b6040518080602001838152602001828103825284818151815260200191508051906020019080838360005b838110156102f35781810151838201526020016102db565b50505050905090810190601f1680156103205780820380516001836020036101000a031916815260200191505b50935050505060405180910390f35b6100f16004803603602081101561034557600080fd5b5035610773565b6102b06004803603602081101561036257600080fd5b50356001600160a01b031661087a565b6100f16004803603602081101561038857600080fd5b50356108e1565b6103ac600480360360208110156103a557600080fd5b5035610992565b604080516001600160a01b03958616815293851660208501529190931682820152606082019290925290519081900360800190f35b610407600480360360208110156103f757600080fd5b50356001600160a01b03166109c9565b6040805160208082528351818301528351919283929083019185019080838360005b83811015610441578181015183820152602001610429565b50505050905090810190601f16801561046e5780820380516001836020036101000a031916815260200191505b509250505060405180910390f35b6100f16004803603602081101561049257600080fd5b5035610a64565b6000818152600460205260409020600101546001600160a01b03163381146104c057600080fd5b5050565b6003805460019081018083556000908152600460205260408082208054336001600160a01b0319918216179091558454835281832090930180549093166001600160a01b039690961695909517909155815481529290922090910155565b60008181526004602052604090206003810154600182015460029092015490916001600160a01b039081169116331461055a57600080fd5b610562610a95565b6001600160a01b038216600090815260208181526040918290208251815460026001821615610100026000190190911604601f81018490049093028101606090810185529381018381529093919284928491908401828280156106065780601f106105db57610100808354040283529160200191610606565b820191906000526020600020905b8154815290600101906020018083116105e957829003601f168201915b50505050508152602001600182015481525050905050505050565b610629610a95565b5060408051808201909152828152602081018290526064821015610689576040805162461bcd60e51b8152602060048201526012602482015271496e73756666696369656e742066756e647360701b604482015290519081900360640190fd5b505050565b610696610aaf565b506040805160208082018352838252336000908152600282529290922081518051929384936106c89284920190610ac2565b5050505050565b6000602081815291815260409081902080548251601f6002600019610100600186161502019093169290920491820185900485028101850190935280835290928391908301828280156107635780601f1061073857610100808354040283529160200191610763565b820191906000526020600020905b81548152906001019060200180831161074657829003601f168201915b5050505050908060010154905082565b6000818152600460205260409020600101546001600160a01b0316331461079957600080fd5b6000818152600460205260409020600101546001600160a01b03166107bc610a95565b6001600160a01b038216600090815260208181526040918290208251815460026001821615610100026000190190911604601f81018490049093028101606090810185529381018381529093919284928491908401828280156108605780601f1061083557610100808354040283529160200191610860565b820191906000526020600020905b81548152906001019060200180831161084357829003601f168201915b505050505081526020016001820154815250509050505050565b60016020818152600092835260409283902080548451600294821615610100026000190190911693909304601f81018390048302840183019094528383529283918301828280156107635780601f1061073857610100808354040283529160200191610763565b600081815260046020526040902060020180546001600160a01b0319163317908190556001600160a01b0316610915610a95565b6001600160a01b0382166000908152600160208181526040928390208351815460029481161561010002600019011693909304601f810183900490920283016060908101855293830182815292939092849290918491908401828280156108605780601f1061083557610100808354040283529160200191610860565b60046020526000908152604090208054600182015460028301546003909301546001600160a01b0392831693918316929091169084565b600260208181526000928352604092839020805484516001821615610100026000190190911693909304601f8101839004830284018301909452838352928391830182828015610a5a5780601f10610a2f57610100808354040283529160200191610a5a565b820191906000526020600020905b815481529060010190602001808311610a3d57829003601f168201915b5050505050905081565b6000818152600460205260409020600281015490546001600160a01b0391821691163314610a9157600080fd5b6109155b604051806040016040528060608152602001600081525090565b6040518060200160405280606081525090565b828054600181600116156101000203166002900490600052602060002090601f016020900481019282601f10610b0357805160ff1916838001178555610b30565b82800160010185558215610b30579182015b82811115610b30578251825591602001919060010190610b15565b50610b3c929150610b40565b5090565b5b80821115610b3c5760008155600101610b4156fea2646970667358221220b03539e39d78a4d7195c0850f9aa968758adc5897b8af500fadd394aa1be536764736f6c634300060c0033",
  "immutableReferences": {},
  "source": "// SPDX-License-Identifier: DEats\r\npragma solidity >=0.6.0;\r\n\r\nimport \"openzeppelin-solidity/contracts/token/ERC20/ERC20.sol\";\r\nimport \"./Foodie.sol\";\r\ncontract DEats {\r\n    \r\n    struct Restaurant {\r\n        string name;\r\n        uint256 fund;\r\n    }\r\n    \r\n    struct User {\r\n        string name;\r\n    }\r\n    \r\n    struct DeliveryGuy{\r\n        string name;\r\n        uint256 fund;\r\n    }\r\n    \r\n    struct Order {\r\n        address Customer;\r\n        address Restaurant;\r\n        address DeliveryPerson;\r\n        uint Price;\r\n    }\r\n    \r\n    mapping(address=>Restaurant) public restaurants;\r\n    mapping(address=>DeliveryGuy) public deliveryGuys;\r\n    mapping(address => User) public users;\r\n    \r\n    uint orderid;\r\n    mapping (uint => Order) public orders;\r\n    uint256 deliveryFee = 10;\r\n    uint commissionRate = 5;\r\n    event orderPlaced(uint256 orderId, address customer, address restaurant);\r\n    event orderAccepted(uint256 orderId, address customer, address restaurant);\r\n    event deliveryAccepted(uint256 orderId, address deliverer);\r\n    event orderOut(uint256 orderId, address customer, address restaurant, address deliverer);\r\n    event orderReceived(uint256 orderId, address customer);\r\n\r\n    FoodieToken Foodie;\r\n    \r\n    constructor () public {\r\n      Foodie = FoodieToken(0xd9145CCE52D386f254917e481eB44e9943F39138);\r\n  }\r\n    \r\n    function addRestaurant(string memory _name, uint256 _fund) public{\r\n        \r\n        Restaurant memory res = Restaurant(_name,_fund);\r\n        require(res.fund >= 100,\"Insufficient funds\");\r\n        // Foodie.transferFrom(msg.sender, address(this), res.fund);\r\n        // restaurants[msg.sender] = res;\r\n    }\r\n    \r\n    function addUser(string memory _name) public {\r\n        \r\n        User memory user = User(_name);\r\n        users[msg.sender] = user;\r\n    }\r\n    \r\n    function addDeliveryGuy(string memory _name, uint256 _fund) public{\r\n        \r\n        DeliveryGuy memory dg = DeliveryGuy(_name,_fund);\r\n        require(dg.fund >= 100,\"Insufficient funds\");\r\n        // Foodie.transferFrom(msg.sender, address(this), dg.fund);\r\n        // deliveryGuys[msg.sender] = dg;\r\n        \r\n    }\r\n    \r\n    function PlaceOrder(address _restaurantaddress, uint _amount) public{\r\n        \r\n        orderid++;\r\n        orders[orderid].Customer = msg.sender;\r\n        orders[orderid].Restaurant = _restaurantaddress;\r\n        orders[orderid].Price = _amount;\r\n        //Foodie.transferFrom(msg.sender,address(this), (orders[orderid].Price + deliveryFee));\r\n        //emit orderPlaced(orderid, orders[orderid].Customer,  orders[orderid].Restaurant);\r\n    }\r\n    \r\n    \r\n    function calculateCommission(uint256 fund) private view returns(uint256){\r\n        \r\n        return (fund/100)* commissionRate;\r\n    }\r\n    \r\n    \r\n    \r\n    function AcceptOrder(uint _orderId) public {\r\n        \r\n        require(orders[_orderId].Restaurant == msg.sender);\r\n        address resaddress = orders[_orderId].Restaurant;\r\n        Restaurant memory res = restaurants[resaddress];\r\n        // res.fund = res.fund - calculateCommission((orders[_orderId].Price));\r\n        // emit orderAccepted(_orderId, orders[_orderId].Customer,  orders[_orderId].Restaurant);\r\n    }\r\n    \r\n    \r\n    function AcceptDelivery(uint _orderId) public {\r\n        \r\n        orders[_orderId].DeliveryPerson = msg.sender;    \r\n        address dgAddr = orders[_orderId].DeliveryPerson;\r\n        DeliveryGuy memory dg = deliveryGuys[dgAddr];\r\n        // dg.fund = dg.fund - calculateCommission((orders[_orderId].Price));\r\n        // emit deliveryAccepted(_orderId, orders[_orderId].DeliveryPerson);\r\n    }\r\n    \r\n    \r\n    function OutForDelivery(uint _orderId) public view{\r\n\r\n        address resaddress = orders[_orderId].Restaurant;\r\n        require(msg.sender == resaddress);\r\n       \r\n    }\r\n    \r\n    function PickedUp(uint _orderId) public{\r\n        uint resamount = orders[_orderId].Price;\r\n        address resaddress = orders[_orderId].Restaurant;\r\n        require(msg.sender ==  orders[_orderId].DeliveryPerson);\r\n        // Foodie.transfer(resaddress, resamount);\r\n        Restaurant memory res = restaurants[resaddress];\r\n        // res.fund = res.fund - calculateCommission((orders[_orderId].Price));\r\n        // emit orderOut(_orderId, orders[_orderId].Customer,  orders[_orderId].Restaurant,  orders[_orderId].DeliveryPerson);\r\n    }\r\n    \r\n\r\n    \r\n    function received(uint _orderId) public{\r\n        \r\n        address deladdress = orders[_orderId].DeliveryPerson;\r\n        require(msg.sender == orders[_orderId].Customer);\r\n    //    Foodie.transfer(deladdress, 10);\r\n        DeliveryGuy memory dg = deliveryGuys[deladdress];\r\n        // dg.fund = dg.fund + calculateCommission((orders[_orderId].Price));\r\n        // emit orderReceived(_orderId, orders[_orderId].Customer);\r\n    }\r\n   \r\n    \r\n}\r\n\r\n\r\n\r\n  \r\n    \r\n    \r\n",
  "sourcePath": "/home/lenova/Restaurant_pages/contracts/Restaurant.sol",
  "compiler": {
    "name": "solc",
    "version": "0.6.12+commit.27d51765.Emscripten.clang"
  },
  "schemaVersion": "3.3.0",
  "updatedAt": "2020-10-17T19:18:54.246Z",
  "networkType": "ethereum",
  "devdoc": {
    "kind": "dev",
    "methods": {},
    "version": 1
  },
  "userdoc": {
    "kind": "user",
    "methods": {},
    "version": 1
  }
}