{
  "contractName": "DEats",
  "abi": [
    {
      "inputs": [],
      "stateMutability": "nonpayable",
      "type": "constructor"
    },
    {
      "anonymous": false,
      "inputs": [
        {
          "indexed": false,
          "internalType": "uint256",
          "name": "orderId",
          "type": "uint256"
        },
        {
          "indexed": false,
          "internalType": "address",
          "name": "deliverer",
          "type": "address"
        }
      ],
      "name": "deliveryAccepted",
      "type": "event"
    },
    {
      "anonymous": false,
      "inputs": [
        {
          "indexed": false,
          "internalType": "uint256",
          "name": "orderId",
          "type": "uint256"
        },
        {
          "indexed": false,
          "internalType": "address",
          "name": "customer",
          "type": "address"
        },
        {
          "indexed": false,
          "internalType": "address",
          "name": "restaurant",
          "type": "address"
        }
      ],
      "name": "orderAccepted",
      "type": "event"
    },
    {
      "anonymous": false,
      "inputs": [
        {
          "indexed": false,
          "internalType": "uint256",
          "name": "orderId",
          "type": "uint256"
        },
        {
          "indexed": false,
          "internalType": "address",
          "name": "customer",
          "type": "address"
        },
        {
          "indexed": false,
          "internalType": "address",
          "name": "restaurant",
          "type": "address"
        },
        {
          "indexed": false,
          "internalType": "address",
          "name": "deliverer",
          "type": "address"
        }
      ],
      "name": "orderOut",
      "type": "event"
    },
    {
      "anonymous": false,
      "inputs": [
        {
          "indexed": false,
          "internalType": "uint256",
          "name": "orderId",
          "type": "uint256"
        },
        {
          "indexed": false,
          "internalType": "address",
          "name": "customer",
          "type": "address"
        },
        {
          "indexed": false,
          "internalType": "address",
          "name": "restaurant",
          "type": "address"
        }
      ],
      "name": "orderPlaced",
      "type": "event"
    },
    {
      "anonymous": false,
      "inputs": [
        {
          "indexed": false,
          "internalType": "uint256",
          "name": "orderId",
          "type": "uint256"
        },
        {
          "indexed": false,
          "internalType": "address",
          "name": "customer",
          "type": "address"
        }
      ],
      "name": "orderReceived",
      "type": "event"
    },
    {
      "inputs": [
        {
          "internalType": "address",
          "name": "",
          "type": "address"
        }
      ],
      "name": "deliveryGuys",
      "outputs": [
        {
          "internalType": "string",
          "name": "name",
          "type": "string"
        },
        {
          "internalType": "uint256",
          "name": "fund",
          "type": "uint256"
        }
      ],
      "stateMutability": "view",
      "type": "function",
      "constant": true
    },
    {
      "inputs": [
        {
          "internalType": "uint256",
          "name": "",
          "type": "uint256"
        }
      ],
      "name": "orders",
      "outputs": [
        {
          "internalType": "address",
          "name": "Customer",
          "type": "address"
        },
        {
          "internalType": "address",
          "name": "Restaurant",
          "type": "address"
        },
        {
          "internalType": "address",
          "name": "DeliveryPerson",
          "type": "address"
        },
        {
          "internalType": "uint256",
          "name": "Price",
          "type": "uint256"
        }
      ],
      "stateMutability": "view",
      "type": "function",
      "constant": true
    },
    {
      "inputs": [
        {
          "internalType": "address",
          "name": "",
          "type": "address"
        }
      ],
      "name": "restaurants",
      "outputs": [
        {
          "internalType": "string",
          "name": "name",
          "type": "string"
        },
        {
          "internalType": "uint256",
          "name": "fund",
          "type": "uint256"
        }
      ],
      "stateMutability": "view",
      "type": "function",
      "constant": true
    },
    {
      "inputs": [
        {
          "internalType": "address",
          "name": "",
          "type": "address"
        }
      ],
      "name": "users",
      "outputs": [
        {
          "internalType": "string",
          "name": "name",
          "type": "string"
        }
      ],
      "stateMutability": "view",
      "type": "function",
      "constant": true
    },
    {
      "inputs": [
        {
          "internalType": "string",
          "name": "_name",
          "type": "string"
        },
        {
          "internalType": "uint256",
          "name": "_fund",
          "type": "uint256"
        }
      ],
      "name": "addRestaurant",
      "outputs": [],
      "stateMutability": "nonpayable",
      "type": "function"
    },
    {
      "inputs": [
        {
          "internalType": "string",
          "name": "_name",
          "type": "string"
        }
      ],
      "name": "addUser",
      "outputs": [],
      "stateMutability": "nonpayable",
      "type": "function"
    },
    {
      "inputs": [
        {
          "internalType": "string",
          "name": "_name",
          "type": "string"
        },
        {
          "internalType": "uint256",
          "name": "_fund",
          "type": "uint256"
        }
      ],
      "name": "addDeliveryGuy",
      "outputs": [],
      "stateMutability": "nonpayable",
      "type": "function"
    },
    {
      "inputs": [
        {
          "internalType": "address",
          "name": "_restaurantaddress",
          "type": "address"
        },
        {
          "internalType": "uint256",
          "name": "_amount",
          "type": "uint256"
        }
      ],
      "name": "PlaceOrder",
      "outputs": [],
      "stateMutability": "nonpayable",
      "type": "function"
    },
    {
      "inputs": [
        {
          "internalType": "uint256",
          "name": "_orderId",
          "type": "uint256"
        }
      ],
      "name": "AcceptOrder",
      "outputs": [],
      "stateMutability": "nonpayable",
      "type": "function"
    },
    {
      "inputs": [
        {
          "internalType": "uint256",
          "name": "_orderId",
          "type": "uint256"
        }
      ],
      "name": "AcceptDelivery",
      "outputs": [],
      "stateMutability": "nonpayable",
      "type": "function"
    },
    {
      "inputs": [
        {
          "internalType": "uint256",
          "name": "_orderId",
          "type": "uint256"
        }
      ],
      "name": "OutForDelivery",
      "outputs": [],
      "stateMutability": "view",
      "type": "function",
      "constant": true
    },
    {
      "inputs": [
        {
          "internalType": "uint256",
          "name": "_orderId",
          "type": "uint256"
        }
      ],
      "name": "PickedUp",
      "outputs": [],
      "stateMutability": "nonpayable",
      "type": "function"
    },
    {
      "inputs": [
        {
          "internalType": "uint256",
          "name": "_orderId",
          "type": "uint256"
        }
      ],
      "name": "received",
      "outputs": [],
      "stateMutability": "nonpayable",
      "type": "function"
    }
  ],
  "bytecode": "0x6080604052600a600555600560065534801561001a57600080fd5b50600780546001600160a01b03191673d9145cce52d386f254917e481eb44e9943f39138179055610e1c806100506000396000f3fe608060405234801561001057600080fd5b50600436106100cf5760003560e01c80632673eb911161008c578063915b59a311610066578063915b59a314610372578063a85c38ef1461038f578063a87430ba146103e1578063e66f0a771461047c576100cf565b80632673eb911461013c57806359c4db881461032f5780635efa7b381461034c576100cf565b806303606e86146100d457806305ca70c8146100f3578063083ec4061461011f57806309009cc41461013c57806318b8275a146101e4578063236cd7dc1461028a575b600080fd5b6100f1600480360360208110156100ea57600080fd5b5035610499565b005b6100f16004803603604081101561010957600080fd5b506001600160a01b0381351690602001356104a3565b6100f16004803603602081101561013557600080fd5b5035610550565b6100f16004803603604081101561015257600080fd5b81019060208101813564010000000081111561016d57600080fd5b82018360208201111561017f57600080fd5b803590602001918460018302840111640100000000831117156101a157600080fd5b91908080601f01602080910402602001604051908101604052809392919081815260200183838082843760009201919091525092955050913592506106bf915050565b6100f1600480360360208110156101fa57600080fd5b81019060208101813564010000000081111561021557600080fd5b82018360208201111561022757600080fd5b8035906020019184600183028401116401000000008311171561024957600080fd5b91908080601f01602080910402602001604051908101604052809392919081815260200183838082843760009201919091525092955061072c945050505050565b6102b0600480360360208110156102a057600080fd5b50356001600160a01b031661076d565b6040518080602001838152602001828103825284818151815260200191508051906020019080838360005b838110156102f35781810151838201526020016102db565b50505050905090810190601f1680156103205780820380516001836020036101000a031916815260200191505b50935050505060405180910390f35b6100f16004803603602081101561034557600080fd5b5035610811565b6102b06004803603602081101561036257600080fd5b50356001600160a01b0316610953565b6100f16004803603602081101561038857600080fd5b50356109ba565b6103ac600480360360208110156103a557600080fd5b5035610b08565b604080516001600160a01b03958616815293851660208501529190931682820152606082019290925290519081900360800190f35b610407600480360360208110156103f757600080fd5b50356001600160a01b0316610b3f565b6040805160208082528351818301528351919283929083019185019080838360005b83811015610441578181015183820152602001610429565b50505050905090810190601f16801561046e5780820380516001836020036101000a031916815260200191505b509250505060405180910390f35b6100f16004803603602081101561049257600080fd5b5035610bda565b6000526004602052565b600380546001908101808355600090815260046020908152604080832080546001600160a01b0319908116331790915585548452818420850180546001600160a01b038a81169190931617905585548452818420860187905594548084529281902080549401548151938452938516918301919091529190921682820152517f070968e660f8d5aba17666f60121c3f3867301fe6a461e88dc713eb7ad12063c9181900360600190a15050565b60008181526004602052604090206003810154600182015460029092015490916001600160a01b039081169116331461058857600080fd5b610590610d26565b6001600160a01b038216600090815260208181526040918290208251815460026001821615610100026000190190911604601f81018490049093028101606090810185529381018381529093919284928491908401828280156106345780601f1061060957610100808354040283529160200191610634565b820191906000526020600020905b81548152906001019060200180831161061757829003601f168201915b505050918352505060019182015460209182015260008781526004825260409081902080549381015460029091015482518a81526001600160a01b039586169481019490945290841683830152909216606082015290519192507fea5a4c776bfcf01faaa33a3ab355c425ac8009cc9cb2f4e383e7db52b2665b2b919081900360800190a150505050565b6106c7610d26565b5060408051808201909152828152602081018290526064821015610727576040805162461bcd60e51b8152602060048201526012602482015271496e73756666696369656e742066756e647360701b604482015290519081900360640190fd5b505050565b610734610d40565b506040805160208082018352838252336000908152600282529290922081518051929384936107669284920190610d53565b5050505050565b6000602081815291815260409081902080548251601f6002600019610100600186161502019093169290920491820185900485028101850190935280835290928391908301828280156108015780601f106107d657610100808354040283529160200191610801565b820191906000526020600020905b8154815290600101906020018083116107e457829003601f168201915b5050505050908060010154905082565b6000818152600460205260409020600101546001600160a01b0316610834610d26565b6001600160a01b038216600090815260208181526040918290208251815460026001821615610100026000190190911604601f81018490049093028101606090810185529381018381529093919284928491908401828280156108d85780601f106108ad576101008083540402835291602001916108d8565b820191906000526020600020905b8154815290600101906020018083116108bb57829003601f168201915b5050509183525050600191820154602091820152600086815260048252604090819020805493015481518881526001600160a01b03948516938101939093529092168183015290519192507f60fd9dfa624e807faf3af33c3043aae1ed8c6ebe194cf399a4cf6997b6b7e25c919081900360600190a1505050565b60016020818152600092835260409283902080548451600294821615610100026000190190911693909304601f81018390048302840183019094528383529283918301828280156108015780601f106107d657610100808354040283529160200191610801565b600081815260046020526040902060020180546001600160a01b0319163317908190556001600160a01b03166109ee610d26565b6001600160a01b0382166000908152600160208181526040928390208351815460029481161561010002600019011693909304601f81018390049092028301606090810185529383018281529293909284929091849190840182828015610a965780601f10610a6b57610100808354040283529160200191610a96565b820191906000526020600020905b815481529060010190602001808311610a7957829003601f168201915b5050509183525050600191909101546020918201526000858152600482526040908190206002015481518781526001600160a01b039091169281019290925280519293507f1d7b37bfac87b5acbb96c8267f573c47609daa902d8134dd305fc7ab5c28296e92918290030190a1505050565b60046020526000908152604090208054600182015460028301546003909301546001600160a01b0392831693918316929091169084565b600260208181526000928352604092839020805484516001821615610100026000190190911693909304601f8101839004830284018301909452838352928391830182828015610bd05780601f10610ba557610100808354040283529160200191610bd0565b820191906000526020600020905b815481529060010190602001808311610bb357829003601f168201915b5050505050905081565b6000818152600460205260409020600281015490546001600160a01b0391821691163314610c0757600080fd5b610c0f610d26565b6001600160a01b0382166000908152600160208181526040928390208351815460029481161561010002600019011693909304601f81018390049092028301606090810185529383018281529293909284929091849190840182828015610cb75780601f10610c8c57610100808354040283529160200191610cb7565b820191906000526020600020905b815481529060010190602001808311610c9a57829003601f168201915b5050509183525050600191909101546020918201526000858152600482526040908190205481518781526001600160a01b039091169281019290925280519293507fa36df7114779797af87600e48b8f779dccb391bd77bcc606b32a7ad2cb9c678192918290030190a1505050565b604051806040016040528060608152602001600081525090565b6040518060200160405280606081525090565b828054600181600116156101000203166002900490600052602060002090601f016020900481019282601f10610d9457805160ff1916838001178555610dc1565b82800160010185558215610dc1579182015b82811115610dc1578251825591602001919060010190610da6565b50610dcd929150610dd1565b5090565b5b80821115610dcd5760008155600101610dd256fea2646970667358221220698f739ed9052412037432ca830e846af434012d3ae060edfcf21a5c74898a9564736f6c634300060c0033",
  "immutableReferences": {},
  "source": "// SPDX-License-Identifier: DEats\r\npragma solidity >=0.6.0;\r\n\r\nimport \"@openzeppelin/contracts/token/ERC20/IERC20.sol\";\r\nimport \"./Foodie.sol\";\r\n\r\ncontract DEats {\r\n    \r\n    struct Restaurant {\r\n        string name;\r\n        uint256 fund;\r\n    }\r\n    \r\n    struct User {\r\n        string name;\r\n    }\r\n    \r\n    struct DeliveryGuy{\r\n        string name;\r\n        uint256 fund;\r\n    }\r\n    \r\n    struct Order {\r\n        address Customer;\r\n        address Restaurant;\r\n        address DeliveryPerson;\r\n        uint Price;\r\n    }\r\n    \r\n    mapping(address=>Restaurant) public restaurants;\r\n    mapping(address=>DeliveryGuy) public deliveryGuys;\r\n    mapping(address => User) public users;\r\n    \r\n    uint orderid;\r\n    mapping (uint => Order) public orders;\r\n    uint256 deliveryFee = 10;\r\n    uint commissionRate = 5;\r\n    event orderPlaced(uint256 orderId, address customer, address restaurant);\r\n    event orderAccepted(uint256 orderId, address customer, address restaurant);\r\n    event deliveryAccepted(uint256 orderId, address deliverer);\r\n    event orderOut(uint256 orderId, address customer, address restaurant, address deliverer);\r\n    event orderReceived(uint256 orderId, address customer);\r\n\r\n    FoodieToken Foodie;\r\n    \r\n    constructor () public {\r\n      Foodie = FoodieToken(0xd9145CCE52D386f254917e481eB44e9943F39138);\r\n  }\r\n    \r\n    function addRestaurant(string memory _name, uint256 _fund) public{\r\n        \r\n        Restaurant memory res = Restaurant(_name,_fund);\r\n        require(res.fund >= 100,\"Insufficient funds\");\r\n        // Foodie.transferFrom(msg.sender, address(this), res.fund);\r\n        // restaurants[msg.sender] = res;\r\n    }\r\n    \r\n    function addUser(string memory _name) public {\r\n        \r\n        User memory user = User(_name);\r\n        users[msg.sender] = user;\r\n    }\r\n    \r\n    function addDeliveryGuy(string memory _name, uint256 _fund) public{\r\n        \r\n        DeliveryGuy memory dg = DeliveryGuy(_name,_fund);\r\n        require(dg.fund >= 100,\"Insufficient funds\");\r\n        // Foodie.transferFrom(msg.sender, address(this), dg.fund);\r\n        // deliveryGuys[msg.sender] = dg;\r\n        \r\n    }\r\n    \r\n    function PlaceOrder(address _restaurantaddress, uint _amount) public{\r\n        \r\n        orderid++;\r\n        orders[orderid].Customer = msg.sender;\r\n        orders[orderid].Restaurant = _restaurantaddress;\r\n        orders[orderid].Price = _amount;\r\n  //     Foodie.transferFrom(msg.sender,address(this), (orders[orderid].Price + deliveryFee));\r\n        emit orderPlaced(orderid, orders[orderid].Customer,  orders[orderid].Restaurant);\r\n    }\r\n    \r\n    \r\n    function calculateCommission(uint256 fund) private view returns(uint256){\r\n        \r\n        return (fund/100)* commissionRate;\r\n    }\r\n    \r\n    \r\n    \r\n    function AcceptOrder(uint _orderId) public {\r\n        \r\n        //require(orders[_orderId].Restaurant == msg.sender);\r\n        address resaddress = orders[_orderId].Restaurant;\r\n        Restaurant memory res = restaurants[resaddress];\r\n        // res.fund = res.fund - calculateCommission((orders[_orderId].Price));\r\n         emit orderAccepted(_orderId, orders[_orderId].Customer,  orders[_orderId].Restaurant);\r\n    }\r\n    \r\n    \r\n    function AcceptDelivery(uint _orderId) public {\r\n        \r\n        orders[_orderId].DeliveryPerson = msg.sender;    \r\n        address dgAddr = orders[_orderId].DeliveryPerson;\r\n        DeliveryGuy memory dg = deliveryGuys[dgAddr];\r\n        // dg.fund = dg.fund - calculateCommission((orders[_orderId].Price));\r\n         emit deliveryAccepted(_orderId, orders[_orderId].DeliveryPerson);\r\n    }\r\n    \r\n    \r\n    function OutForDelivery(uint _orderId) public view{\r\n\r\n        address resaddress = orders[_orderId].Restaurant;\r\n        //require(msg.sender == resaddress);\r\n       \r\n    }\r\n    \r\n    function PickedUp(uint _orderId) public{\r\n        uint resamount = orders[_orderId].Price;\r\n        address resaddress = orders[_orderId].Restaurant;\r\n        require(msg.sender ==  orders[_orderId].DeliveryPerson);\r\n        // Foodie.transfer(resaddress, resamount);\r\n        Restaurant memory res = restaurants[resaddress];\r\n        // res.fund = res.fund - calculateCommission((orders[_orderId].Price));\r\n         emit orderOut(_orderId, orders[_orderId].Customer,  orders[_orderId].Restaurant,  orders[_orderId].DeliveryPerson);\r\n    }\r\n    \r\n\r\n    \r\n    function received(uint _orderId) public{\r\n        \r\n        address deladdress = orders[_orderId].DeliveryPerson;\r\n        require(msg.sender == orders[_orderId].Customer);\r\n    //    Foodie.transfer(deladdress, 10);\r\n        DeliveryGuy memory dg = deliveryGuys[deladdress];\r\n        // dg.fund = dg.fund + calculateCommission((orders[_orderId].Price));\r\n         emit orderReceived(_orderId, orders[_orderId].Customer);\r\n    }\r\n   \r\n    \r\n}\r\n\r\n\r\n\r\n  \r\n    \r\n    \r\n",
  "sourcePath": "/home/lenova/DEATS-BLOCKCHAIN-INTERN/contracts/Restaurant.sol",
  "compiler": {
    "name": "solc",
    "version": "0.6.12+commit.27d51765.Emscripten.clang"
  },
  "schemaVersion": "3.3.0",
  "updatedAt": "2020-10-19T06:51:39.300Z",
  "networkType": "ethereum",
  "devdoc": {
    "kind": "dev",
    "methods": {},
    "version": 1
  },
  "userdoc": {
    "kind": "user",
    "methods": {},
    "version": 1
  }
}